{
  "contractName": "Roi",
  "abi": [
    {
      "inputs": [],
      "stateMutability": "nonpayable",
      "type": "constructor"
    },
    {
      "anonymous": false,
      "inputs": [
        {
          "indexed": true,
          "internalType": "address",
          "name": "owner",
          "type": "address"
        },
        {
          "indexed": true,
          "internalType": "address",
          "name": "spender",
          "type": "address"
        },
        {
          "indexed": false,
          "internalType": "uint256",
          "name": "value",
          "type": "uint256"
        }
      ],
      "name": "Approval",
      "type": "event"
    },
    {
      "anonymous": false,
      "inputs": [
        {
          "indexed": false,
          "internalType": "uint256",
          "name": "id",
          "type": "uint256"
        },
        {
          "indexed": false,
          "internalType": "address",
          "name": "depositor",
          "type": "address"
        },
        {
          "indexed": false,
          "internalType": "uint256",
          "name": "amount",
          "type": "uint256"
        },
        {
          "indexed": false,
          "internalType": "uint256",
          "name": "balance",
          "type": "uint256"
        }
      ],
      "name": "Deposit",
      "type": "event"
    },
    {
      "anonymous": false,
      "inputs": [
        {
          "indexed": false,
          "internalType": "uint256",
          "name": "id",
          "type": "uint256"
        },
        {
          "indexed": false,
          "internalType": "address",
          "name": "addrss",
          "type": "address"
        }
      ],
      "name": "Deregister",
      "type": "event"
    },
    {
      "anonymous": false,
      "inputs": [
        {
          "indexed": false,
          "internalType": "uint256",
          "name": "id",
          "type": "uint256"
        },
        {
          "indexed": false,
          "internalType": "address",
          "name": "addrss",
          "type": "address"
        },
        {
          "indexed": false,
          "internalType": "uint256",
          "name": "day",
          "type": "uint256"
        },
        {
          "indexed": false,
          "internalType": "uint256",
          "name": "amount",
          "type": "uint256"
        }
      ],
      "name": "Interest",
      "type": "event"
    },
    {
      "anonymous": false,
      "inputs": [
        {
          "indexed": false,
          "internalType": "uint256",
          "name": "numberOfUsers",
          "type": "uint256"
        },
        {
          "indexed": false,
          "internalType": "uint256",
          "name": "amount",
          "type": "uint256"
        }
      ],
      "name": "Liquify",
      "type": "event"
    },
    {
      "anonymous": false,
      "inputs": [
        {
          "indexed": false,
          "internalType": "uint256",
          "name": "numberOfUsers",
          "type": "uint256"
        },
        {
          "indexed": false,
          "internalType": "address",
          "name": "usr",
          "type": "address"
        },
        {
          "indexed": false,
          "internalType": "uint256",
          "name": "amount",
          "type": "uint256"
        }
      ],
      "name": "LiquifyWithAddress",
      "type": "event"
    },
    {
      "anonymous": false,
      "inputs": [
        {
          "indexed": true,
          "internalType": "address",
          "name": "previousOwner",
          "type": "address"
        },
        {
          "indexed": true,
          "internalType": "address",
          "name": "newOwner",
          "type": "address"
        }
      ],
      "name": "OwnershipTransferred",
      "type": "event"
    },
    {
      "anonymous": false,
      "inputs": [
        {
          "indexed": false,
          "internalType": "uint256",
          "name": "id",
          "type": "uint256"
        },
        {
          "indexed": false,
          "internalType": "address",
          "name": "addrss",
          "type": "address"
        }
      ],
      "name": "Register",
      "type": "event"
    },
    {
      "anonymous": false,
      "inputs": [
        {
          "indexed": true,
          "internalType": "address",
          "name": "from",
          "type": "address"
        },
        {
          "indexed": true,
          "internalType": "address",
          "name": "to",
          "type": "address"
        },
        {
          "indexed": false,
          "internalType": "uint256",
          "name": "value",
          "type": "uint256"
        }
      ],
      "name": "Transfer",
      "type": "event"
    },
    {
      "anonymous": false,
      "inputs": [
        {
          "indexed": false,
          "internalType": "uint256",
          "name": "id",
          "type": "uint256"
        },
        {
          "indexed": false,
          "internalType": "address",
          "name": "withdrawer",
          "type": "address"
        },
        {
          "indexed": false,
          "internalType": "uint256",
          "name": "amount",
          "type": "uint256"
        },
        {
          "indexed": false,
          "internalType": "uint256",
          "name": "balance",
          "type": "uint256"
        }
      ],
      "name": "Withdraw",
      "type": "event"
    },
    {
      "inputs": [
        {
          "internalType": "address",
          "name": "owner",
          "type": "address"
        },
        {
          "internalType": "address",
          "name": "spender",
          "type": "address"
        }
      ],
      "name": "allowance",
      "outputs": [
        {
          "internalType": "uint256",
          "name": "",
          "type": "uint256"
        }
      ],
      "stateMutability": "view",
      "type": "function"
    },
    {
      "inputs": [
        {
          "internalType": "address",
          "name": "spender",
          "type": "address"
        },
        {
          "internalType": "uint256",
          "name": "amount",
          "type": "uint256"
        }
      ],
      "name": "approve",
      "outputs": [
        {
          "internalType": "bool",
          "name": "",
          "type": "bool"
        }
      ],
      "stateMutability": "nonpayable",
      "type": "function"
    },
    {
      "inputs": [
        {
          "internalType": "address",
          "name": "",
          "type": "address"
        }
      ],
      "name": "balance",
      "outputs": [
        {
          "internalType": "uint256",
          "name": "",
          "type": "uint256"
        }
      ],
      "stateMutability": "view",
      "type": "function"
    },
    {
      "inputs": [
        {
          "internalType": "address",
          "name": "account",
          "type": "address"
        }
      ],
      "name": "balanceOf",
      "outputs": [
        {
          "internalType": "uint256",
          "name": "",
          "type": "uint256"
        }
      ],
      "stateMutability": "view",
      "type": "function"
    },
    {
      "inputs": [],
      "name": "decimals",
      "outputs": [
        {
          "internalType": "uint8",
          "name": "",
          "type": "uint8"
        }
      ],
      "stateMutability": "view",
      "type": "function"
    },
    {
      "inputs": [
        {
          "internalType": "address",
          "name": "spender",
          "type": "address"
        },
        {
          "internalType": "uint256",
          "name": "subtractedValue",
          "type": "uint256"
        }
      ],
      "name": "decreaseAllowance",
      "outputs": [
        {
          "internalType": "bool",
          "name": "",
          "type": "bool"
        }
      ],
      "stateMutability": "nonpayable",
      "type": "function"
    },
    {
      "inputs": [
        {
          "internalType": "address",
          "name": "spender",
          "type": "address"
        },
        {
          "internalType": "uint256",
          "name": "addedValue",
          "type": "uint256"
        }
      ],
      "name": "increaseAllowance",
      "outputs": [
        {
          "internalType": "bool",
          "name": "",
          "type": "bool"
        }
      ],
      "stateMutability": "nonpayable",
      "type": "function"
    },
    {
      "inputs": [],
      "name": "name",
      "outputs": [
        {
          "internalType": "string",
          "name": "",
          "type": "string"
        }
      ],
      "stateMutability": "view",
      "type": "function"
    },
    {
      "inputs": [],
      "name": "owner",
      "outputs": [
        {
          "internalType": "address",
          "name": "",
          "type": "address"
        }
      ],
      "stateMutability": "view",
      "type": "function"
    },
    {
      "inputs": [],
      "name": "renounceOwnership",
      "outputs": [],
      "stateMutability": "nonpayable",
      "type": "function"
    },
    {
      "inputs": [],
      "name": "symbol",
      "outputs": [
        {
          "internalType": "string",
          "name": "",
          "type": "string"
        }
      ],
      "stateMutability": "view",
      "type": "function"
    },
    {
      "inputs": [],
      "name": "totalSupply",
      "outputs": [
        {
          "internalType": "uint256",
          "name": "",
          "type": "uint256"
        }
      ],
      "stateMutability": "view",
      "type": "function"
    },
    {
      "inputs": [
        {
          "internalType": "address",
          "name": "recipient",
          "type": "address"
        },
        {
          "internalType": "uint256",
          "name": "amount",
          "type": "uint256"
        }
      ],
      "name": "transfer",
      "outputs": [
        {
          "internalType": "bool",
          "name": "",
          "type": "bool"
        }
      ],
      "stateMutability": "nonpayable",
      "type": "function"
    },
    {
      "inputs": [
        {
          "internalType": "address",
          "name": "sender",
          "type": "address"
        },
        {
          "internalType": "address",
          "name": "recipient",
          "type": "address"
        },
        {
          "internalType": "uint256",
          "name": "amount",
          "type": "uint256"
        }
      ],
      "name": "transferFrom",
      "outputs": [
        {
          "internalType": "bool",
          "name": "",
          "type": "bool"
        }
      ],
      "stateMutability": "nonpayable",
      "type": "function"
    },
    {
      "inputs": [
        {
          "internalType": "address",
          "name": "newOwner",
          "type": "address"
        }
      ],
      "name": "transferOwnership",
      "outputs": [],
      "stateMutability": "nonpayable",
      "type": "function"
    },
    {
      "inputs": [
        {
          "internalType": "uint256",
          "name": "",
          "type": "uint256"
        }
      ],
      "name": "user",
      "outputs": [
        {
          "internalType": "address",
          "name": "",
          "type": "address"
        }
      ],
      "stateMutability": "view",
      "type": "function"
    },
    {
      "inputs": [],
      "name": "registration",
      "outputs": [],
      "stateMutability": "payable",
      "type": "function"
    },
    {
      "inputs": [
        {
          "internalType": "uint256",
          "name": "_id",
          "type": "uint256"
        }
      ],
      "name": "deregistration",
      "outputs": [],
      "stateMutability": "payable",
      "type": "function"
    },
    {
      "inputs": [],
      "name": "userCountShow",
      "outputs": [
        {
          "internalType": "uint256",
          "name": "",
          "type": "uint256"
        }
      ],
      "stateMutability": "view",
      "type": "function"
    },
    {
      "inputs": [
        {
          "internalType": "uint256",
          "name": "_id",
          "type": "uint256"
        }
      ],
      "name": "deposit",
      "outputs": [],
      "stateMutability": "payable",
      "type": "function"
    },
    {
      "inputs": [],
      "name": "contBal",
      "outputs": [
        {
          "internalType": "uint256",
          "name": "",
          "type": "uint256"
        }
      ],
      "stateMutability": "view",
      "type": "function"
    },
    {
      "inputs": [
        {
          "internalType": "uint256",
          "name": "_id",
          "type": "uint256"
        }
      ],
      "name": "day",
      "outputs": [
        {
          "internalType": "uint256",
          "name": "",
          "type": "uint256"
        }
      ],
      "stateMutability": "view",
      "type": "function"
    },
    {
      "inputs": [
        {
          "internalType": "uint256",
          "name": "_id",
          "type": "uint256"
        }
      ],
      "name": "interest",
      "outputs": [
        {
          "internalType": "uint256",
          "name": "",
          "type": "uint256"
        }
      ],
      "stateMutability": "view",
      "type": "function"
    },
    {
      "inputs": [
        {
          "internalType": "uint256",
          "name": "_id",
          "type": "uint256"
        },
        {
          "internalType": "uint256",
          "name": "_amount",
          "type": "uint256"
        }
      ],
      "name": "withdraw",
      "outputs": [],
      "stateMutability": "payable",
      "type": "function"
    },
    {
      "inputs": [
        {
          "internalType": "address",
          "name": "usr",
          "type": "address"
        }
      ],
      "name": "rewards",
      "outputs": [
        {
          "internalType": "uint256",
          "name": "",
          "type": "uint256"
        }
      ],
      "stateMutability": "view",
      "type": "function"
    }
  ],
  "bytecode": "0x6080604052670de0b6b3a7640000600a553480156200001d57600080fd5b506040518060400160405280601581526020017f496e7465726573742052657761726420546f6b656e00000000000000000000008152506040518060400160405280600381526020017f49525400000000000000000000000000000000000000000000000000000000008152508160039080519060200190620000a29291906200021e565b508060049080519060200190620000bb9291906200021e565b505050620000de620000d26200015060201b60201c565b6200015860201b60201c565b60006007819055506001600881905550600060098190555033600b6000600754815260200190815260200160002060006101000a81548173ffffffffffffffffffffffffffffffffffffffff021916908373ffffffffffffffffffffffffffffffffffffffff16021790555062000333565b600033905090565b6000600560009054906101000a900473ffffffffffffffffffffffffffffffffffffffff16905081600560006101000a81548173ffffffffffffffffffffffffffffffffffffffff021916908373ffffffffffffffffffffffffffffffffffffffff1602179055508173ffffffffffffffffffffffffffffffffffffffff168173ffffffffffffffffffffffffffffffffffffffff167f8be0079c531659141344cd1fd0a4f28419497f9722a3daafe3b4186f6b6457e060405160405180910390a35050565b8280546200022c90620002ce565b90600052602060002090601f0160209004810192826200025057600085556200029c565b82601f106200026b57805160ff19168380011785556200029c565b828001600101855582156200029c579182015b828111156200029b5782518255916020019190600101906200027e565b5b509050620002ab9190620002af565b5090565b5b80821115620002ca576000816000905550600101620002b0565b5090565b60006002820490506001821680620002e757607f821691505b60208210811415620002fe57620002fd62000304565b5b50919050565b7f4e487b7100000000000000000000000000000000000000000000000000000000600052602260045260246000fd5b613c2b80620003436000396000f3fe6080604052600436106101655760003560e01c806370a08231116100d1578063a457c2d71161008a578063dd62ed3e11610064578063dd62ed3e14610531578063e3d670d71461056e578063e7b69e74146105ab578063f2fde38b146105e857610165565b8063a457c2d71461049b578063a9059cbb146104d8578063b6b55f251461051557610165565b806370a0823114610389578063715018a6146103c65780637d3f08a7146103dd5780638da5cb5b146104085780638ff12b6d1461043357806395d89b411461047057610165565b8063313ce56711610123578063313ce5671461029357806339509351146102be578063441a3e70146102fb578063443bd1d01461031757806351c3183b14610321578063553275be1461034c57610165565b80627f6bea1461016a57806306fdde03146101865780630700037d146101b1578063095ea7b3146101ee57806318160ddd1461022b57806323b872dd14610256575b600080fd5b610184600480360381019061017f9190612f1d565b610611565b005b34801561019257600080fd5b5061019b610971565b6040516101a891906135cf565b60405180910390f35b3480156101bd57600080fd5b506101d860048036038101906101d39190612e2d565b610a03565b6040516101e591906137f1565b60405180910390f35b3480156101fa57600080fd5b5061021560048036038101906102109190612ee1565b610a1a565b60405161022291906135b4565b60405180910390f35b34801561023757600080fd5b50610240610a38565b60405161024d91906137f1565b60405180910390f35b34801561026257600080fd5b5061027d60048036038101906102789190612e92565b610a42565b60405161028a91906135b4565b60405180910390f35b34801561029f57600080fd5b506102a8610b3a565b6040516102b591906138da565b60405180910390f35b3480156102ca57600080fd5b506102e560048036038101906102e09190612ee1565b610b43565b6040516102f291906135b4565b60405180910390f35b61031560048036038101906103109190612f46565b610bef565b005b61031f611242565b005b34801561032d57600080fd5b50610336611600565b60405161034391906137f1565b60405180910390f35b34801561035857600080fd5b50610373600480360381019061036e9190612f1d565b611608565b6040516103809190613599565b60405180910390f35b34801561039557600080fd5b506103b060048036038101906103ab9190612e2d565b61163b565b6040516103bd91906137f1565b60405180910390f35b3480156103d257600080fd5b506103db611683565b005b3480156103e957600080fd5b506103f261170b565b6040516103ff91906137f1565b60405180910390f35b34801561041457600080fd5b5061041d611715565b60405161042a9190613599565b60405180910390f35b34801561043f57600080fd5b5061045a60048036038101906104559190612f1d565b61173f565b60405161046791906137f1565b60405180910390f35b34801561047c57600080fd5b506104856117f1565b60405161049291906135cf565b60405180910390f35b3480156104a757600080fd5b506104c260048036038101906104bd9190612ee1565b611883565b6040516104cf91906135b4565b60405180910390f35b3480156104e457600080fd5b506104ff60048036038101906104fa9190612ee1565b61196e565b60405161050c91906135b4565b60405180910390f35b61052f600480360381019061052a9190612f1d565b61198c565b005b34801561053d57600080fd5b5061055860048036038101906105539190612e56565b612083565b60405161056591906137f1565b60405180910390f35b34801561057a57600080fd5b5061059560048036038101906105909190612e2d565b61210a565b6040516105a291906137f1565b60405180910390f35b3480156105b757600080fd5b506105d260048036038101906105cd9190612f1d565b612122565b6040516105df91906137f1565b60405180910390f35b3480156105f457600080fd5b5061060f600480360381019061060a9190612e2d565b6122b2565b005b600b600082815260200190815260200160002060009054906101000a900473ffffffffffffffffffffffffffffffffffffffff1673ffffffffffffffffffffffffffffffffffffffff163373ffffffffffffffffffffffffffffffffffffffff16146106b2576040517f08c379a00000000000000000000000000000000000000000000000000000000081526004016106a990613751565b60405180910390fd5b600b600082815260200190815260200160002060009054906101000a900473ffffffffffffffffffffffffffffffffffffffff1673ffffffffffffffffffffffffffffffffffffffff16600b600080815260200190815260200160002060009054906101000a900473ffffffffffffffffffffffffffffffffffffffff1673ffffffffffffffffffffffffffffffffffffffff16141561075157600080fd5b600080600b600084815260200190815260200160002060009054906101000a900473ffffffffffffffffffffffffffffffffffffffff1690506000600d6000600b600087815260200190815260200160002060009054906101000a900473ffffffffffffffffffffffffffffffffffffffff1673ffffffffffffffffffffffffffffffffffffffff1673ffffffffffffffffffffffffffffffffffffffff1681526020019081526020016000205411156108825761088183600d6000600b600088815260200190815260200160002060009054906101000a900473ffffffffffffffffffffffffffffffffffffffff1673ffffffffffffffffffffffffffffffffffffffff1673ffffffffffffffffffffffffffffffffffffffff16815260200190815260200160002054610bef565b5b6000600b600085815260200190815260200160002060006101000a81548173ffffffffffffffffffffffffffffffffffffffff021916908373ffffffffffffffffffffffffffffffffffffffff1602179055508160085411156108fa5782600f60006008548152602001908152602001600020819055505b60085491506008600081548092919061091290613ae0565b919050555061092d60016009546123aa90919063ffffffff16565b6009819055507ff3f9e981b776ef02aad0100afb8e04d9f08aaa4c3d91e3df36feb822a9ff90a6838260405161096492919061380c565b60405180910390a1505050565b60606003805461098090613aae565b80601f01602080910402602001604051908101604052809291908181526020018280546109ac90613aae565b80156109f95780601f106109ce576101008083540402835291602001916109f9565b820191906000526020600020905b8154815290600101906020018083116109dc57829003601f168201915b5050505050905090565b600080610a0f8361163b565b905080915050919050565b6000610a2e610a276123c0565b84846123c8565b6001905092915050565b6000600254905090565b6000610a4f848484612593565b6000600160008673ffffffffffffffffffffffffffffffffffffffff1673ffffffffffffffffffffffffffffffffffffffff1681526020019081526020016000206000610a9a6123c0565b73ffffffffffffffffffffffffffffffffffffffff1673ffffffffffffffffffffffffffffffffffffffff16815260200190815260200160002054905082811015610b1a576040517f08c379a0000000000000000000000000000000000000000000000000000000008152600401610b11906136f1565b60405180910390fd5b610b2e85610b266123c0565b8584036123c8565b60019150509392505050565b60006012905090565b6000610be5610b506123c0565b848460016000610b5e6123c0565b73ffffffffffffffffffffffffffffffffffffffff1673ffffffffffffffffffffffffffffffffffffffff16815260200190815260200160002060008873ffffffffffffffffffffffffffffffffffffffff1673ffffffffffffffffffffffffffffffffffffffff16815260200190815260200160002054610be09190613911565b6123c8565b6001905092915050565b600d6000600b600085815260200190815260200160002060009054906101000a900473ffffffffffffffffffffffffffffffffffffffff1673ffffffffffffffffffffffffffffffffffffffff1673ffffffffffffffffffffffffffffffffffffffff16815260200190815260200160002054811115610c6e57600080fd5b600b600083815260200190815260200160002060009054906101000a900473ffffffffffffffffffffffffffffffffffffffff1673ffffffffffffffffffffffffffffffffffffffff163373ffffffffffffffffffffffffffffffffffffffff1614610d0f576040517f08c379a0000000000000000000000000000000000000000000000000000000008152600401610d0690613751565b60405180910390fd5b6000610d1a8361173f565b1115610d2a57610d2982612814565b5b6000610e23600c6000600b600087815260200190815260200160002060009054906101000a900473ffffffffffffffffffffffffffffffffffffffff1673ffffffffffffffffffffffffffffffffffffffff1673ffffffffffffffffffffffffffffffffffffffff16815260200190815260200160002054600d6000600b600088815260200190815260200160002060009054906101000a900473ffffffffffffffffffffffffffffffffffffffff1673ffffffffffffffffffffffffffffffffffffffff1673ffffffffffffffffffffffffffffffffffffffff168152602001908152602001600020546123aa90919063ffffffff16565b905042600e6000600b600087815260200190815260200160002060009054906101000a900473ffffffffffffffffffffffffffffffffffffffff1673ffffffffffffffffffffffffffffffffffffffff1673ffffffffffffffffffffffffffffffffffffffff16815260200190815260200160002081905550610f33610eb2828461299890919063ffffffff16565b600d6000600b600088815260200190815260200160002060009054906101000a900473ffffffffffffffffffffffffffffffffffffffff1673ffffffffffffffffffffffffffffffffffffffff1673ffffffffffffffffffffffffffffffffffffffff168152602001908152602001600020546123aa90919063ffffffff16565b600d6000600b600087815260200190815260200160002060009054906101000a900473ffffffffffffffffffffffffffffffffffffffff1673ffffffffffffffffffffffffffffffffffffffff1673ffffffffffffffffffffffffffffffffffffffff16815260200190815260200160002081905550610fe6600b600085815260200190815260200160002060009054906101000a900473ffffffffffffffffffffffffffffffffffffffff16826129ae565b61106b82600c6000600b600088815260200190815260200160002060009054906101000a900473ffffffffffffffffffffffffffffffffffffffff1673ffffffffffffffffffffffffffffffffffffffff1673ffffffffffffffffffffffffffffffffffffffff168152602001908152602001600020546123aa90919063ffffffff16565b600c6000600b600087815260200190815260200160002060009054906101000a900473ffffffffffffffffffffffffffffffffffffffff1673ffffffffffffffffffffffffffffffffffffffff1673ffffffffffffffffffffffffffffffffffffffff16815260200190815260200160002081905550600b600084815260200190815260200160002060009054906101000a900473ffffffffffffffffffffffffffffffffffffffff1673ffffffffffffffffffffffffffffffffffffffff166108fc839081150290604051600060405180830381858888f1935050505015801561115a573d6000803e3d6000fd5b507fb0ecf14e184effded5473bba77dcfab32b094b77ac1fbb36beec2aef5558797083600b600086815260200190815260200160002060009054906101000a900473ffffffffffffffffffffffffffffffffffffffff1684600d6000600b60008a815260200190815260200160002060009054906101000a900473ffffffffffffffffffffffffffffffffffffffff1673ffffffffffffffffffffffffffffffffffffffff1673ffffffffffffffffffffffffffffffffffffffff16815260200190815260200160002054604051611235949392919061386c565b60405180910390a1505050565b61124a611715565b73ffffffffffffffffffffffffffffffffffffffff163373ffffffffffffffffffffffffffffffffffffffff1614156112b8576040517f08c379a00000000000000000000000000000000000000000000000000000000081526004016112af906136b1565b60405180910390fd5b60005b600854811161132e576000600f60008381526020019081526020016000205411156112ff57600f60008281526020019081526020016000205460078190555061132e565b611315600160095461299890919063ffffffff16565b600781905550808061132690613ae0565b9150506112bb565b600073ffffffffffffffffffffffffffffffffffffffff16600b6000600754815260200190815260200160002060009054906101000a900473ffffffffffffffffffffffffffffffffffffffff1673ffffffffffffffffffffffffffffffffffffffff16146113d2576040517f08c379a00000000000000000000000000000000000000000000000000000000081526004016113c990613611565b60405180910390fd5b6000600190505b600954811161149757600b600082815260200190815260200160002060009054906101000a900473ffffffffffffffffffffffffffffffffffffffff1673ffffffffffffffffffffffffffffffffffffffff163373ffffffffffffffffffffffffffffffffffffffff161415611484576040517f08c379a000000000000000000000000000000000000000000000000000000000815260040161147b90613731565b60405180910390fd5b808061148f90613ae0565b9150506113d9565b50663c0a75e0b4400034146114e1576040517f08c379a00000000000000000000000000000000000000000000000000000000081526004016114d8906136d1565b60405180910390fd5b600060075490506114fd3460065461299890919063ffffffff16565b60068190555033600b6000600754815260200190815260200160002060006101000a81548173ffffffffffffffffffffffffffffffffffffffff021916908373ffffffffffffffffffffffffffffffffffffffff1602179055506009600081548092919061156a90613ae0565b9190505550611577612b0e565b6000600f6000848152602001908152602001600020819055507fa902c0ee3df5ddb3d1ab80437a22cd86a19a2295f7c96c5e387ea29d9d0bfaad81600b600084815260200190815260200160002060009054906101000a900473ffffffffffffffffffffffffffffffffffffffff166040516115f492919061380c565b60405180910390a15050565b600047905090565b600b6020528060005260406000206000915054906101000a900473ffffffffffffffffffffffffffffffffffffffff1681565b60008060008373ffffffffffffffffffffffffffffffffffffffff1673ffffffffffffffffffffffffffffffffffffffff168152602001908152602001600020549050919050565b61168b6123c0565b73ffffffffffffffffffffffffffffffffffffffff166116a9611715565b73ffffffffffffffffffffffffffffffffffffffff16146116ff576040517f08c379a00000000000000000000000000000000000000000000000000000000081526004016116f690613711565b60405180910390fd5b6117096000612ca6565b565b6000600954905090565b6000600560009054906101000a900473ffffffffffffffffffffffffffffffffffffffff16905090565b60008042905060006117cc600e6000600b600088815260200190815260200160002060009054906101000a900473ffffffffffffffffffffffffffffffffffffffff1673ffffffffffffffffffffffffffffffffffffffff1673ffffffffffffffffffffffffffffffffffffffff16815260200190815260200160002054836123aa90919063ffffffff16565b905060006117e4600a83612d6c90919063ffffffff16565b9050809350505050919050565b60606004805461180090613aae565b80601f016020809104026020016040519081016040528092919081815260200182805461182c90613aae565b80156118795780601f1061184e57610100808354040283529160200191611879565b820191906000526020600020905b81548152906001019060200180831161185c57829003601f168201915b5050505050905090565b600080600160006118926123c0565b73ffffffffffffffffffffffffffffffffffffffff1673ffffffffffffffffffffffffffffffffffffffff16815260200190815260200160002060008573ffffffffffffffffffffffffffffffffffffffff1673ffffffffffffffffffffffffffffffffffffffff1681526020019081526020016000205490508281101561194f576040517f08c379a0000000000000000000000000000000000000000000000000000000008152600401611946906137b1565b60405180910390fd5b61196361195a6123c0565b858584036123c8565b600191505092915050565b600061198261197b6123c0565b8484612593565b6001905092915050565b600b600082815260200190815260200160002060009054906101000a900473ffffffffffffffffffffffffffffffffffffffff1673ffffffffffffffffffffffffffffffffffffffff163373ffffffffffffffffffffffffffffffffffffffff1614611a2d576040517f08c379a0000000000000000000000000000000000000000000000000000000008152600401611a2490613751565b60405180910390fd5b60003411611a3a57600080fd5b6000600e6000600b600085815260200190815260200160002060009054906101000a900473ffffffffffffffffffffffffffffffffffffffff1673ffffffffffffffffffffffffffffffffffffffff1673ffffffffffffffffffffffffffffffffffffffff168152602001908152602001600020541115611d3057611abe81612814565b611b4334600d6000600b600086815260200190815260200160002060009054906101000a900473ffffffffffffffffffffffffffffffffffffffff1673ffffffffffffffffffffffffffffffffffffffff1673ffffffffffffffffffffffffffffffffffffffff1681526020019081526020016000205461299890919063ffffffff16565b600d6000600b600085815260200190815260200160002060009054906101000a900473ffffffffffffffffffffffffffffffffffffffff1673ffffffffffffffffffffffffffffffffffffffff1673ffffffffffffffffffffffffffffffffffffffff16815260200190815260200160002081905550611c3e34600c6000600b600086815260200190815260200160002060009054906101000a900473ffffffffffffffffffffffffffffffffffffffff1673ffffffffffffffffffffffffffffffffffffffff1673ffffffffffffffffffffffffffffffffffffffff1681526020019081526020016000205461299890919063ffffffff16565b600c6000600b600085815260200190815260200160002060009054906101000a900473ffffffffffffffffffffffffffffffffffffffff1673ffffffffffffffffffffffffffffffffffffffff1673ffffffffffffffffffffffffffffffffffffffff1681526020019081526020016000208190555042600e6000600b600085815260200190815260200160002060009054906101000a900473ffffffffffffffffffffffffffffffffffffffff1673ffffffffffffffffffffffffffffffffffffffff1673ffffffffffffffffffffffffffffffffffffffff16815260200190815260200160002081905550611f9e565b611db534600d6000600b600086815260200190815260200160002060009054906101000a900473ffffffffffffffffffffffffffffffffffffffff1673ffffffffffffffffffffffffffffffffffffffff1673ffffffffffffffffffffffffffffffffffffffff1681526020019081526020016000205461299890919063ffffffff16565b600d6000600b600085815260200190815260200160002060009054906101000a900473ffffffffffffffffffffffffffffffffffffffff1673ffffffffffffffffffffffffffffffffffffffff1673ffffffffffffffffffffffffffffffffffffffff16815260200190815260200160002081905550611eb034600c6000600b600086815260200190815260200160002060009054906101000a900473ffffffffffffffffffffffffffffffffffffffff1673ffffffffffffffffffffffffffffffffffffffff1673ffffffffffffffffffffffffffffffffffffffff1681526020019081526020016000205461299890919063ffffffff16565b600c6000600b600085815260200190815260200160002060009054906101000a900473ffffffffffffffffffffffffffffffffffffffff1673ffffffffffffffffffffffffffffffffffffffff1673ffffffffffffffffffffffffffffffffffffffff1681526020019081526020016000208190555042600e6000600b600085815260200190815260200160002060009054906101000a900473ffffffffffffffffffffffffffffffffffffffff1673ffffffffffffffffffffffffffffffffffffffff1673ffffffffffffffffffffffffffffffffffffffff168152602001908152602001600020819055505b7fd36a2f67d06d285786f61a32b052b9ace6b0b7abef5177b54358abdc83a0b69b81600b600084815260200190815260200160002060009054906101000a900473ffffffffffffffffffffffffffffffffffffffff1634600d6000600b600088815260200190815260200160002060009054906101000a900473ffffffffffffffffffffffffffffffffffffffff1673ffffffffffffffffffffffffffffffffffffffff1673ffffffffffffffffffffffffffffffffffffffff16815260200190815260200160002054604051612078949392919061386c565b60405180910390a150565b6000600160008473ffffffffffffffffffffffffffffffffffffffff1673ffffffffffffffffffffffffffffffffffffffff16815260200190815260200160002060008373ffffffffffffffffffffffffffffffffffffffff1673ffffffffffffffffffffffffffffffffffffffff16815260200190815260200160002054905092915050565b600d6020528060005260406000206000915090505481565b60008060006121308461173f565b90506000600d6000600b600088815260200190815260200160002060009054906101000a900473ffffffffffffffffffffffffffffffffffffffff1673ffffffffffffffffffffffffffffffffffffffff1673ffffffffffffffffffffffffffffffffffffffff168152602001908152602001600020549050600082116121ec576040517f08c379a00000000000000000000000000000000000000000000000000000000081526004016121e390613691565b60405180910390fd5b6000600190505b82811161225257600060ab90506122276127106122198386612d8290919063ffffffff16565b612d6c90919063ffffffff16565b945061223c858461299890919063ffffffff16565b925050808061224a90613ae0565b9150506121f3565b506122a5600c60003373ffffffffffffffffffffffffffffffffffffffff1673ffffffffffffffffffffffffffffffffffffffff16815260200190815260200160002054826123aa90919063ffffffff16565b9050809350505050919050565b6122ba6123c0565b73ffffffffffffffffffffffffffffffffffffffff166122d8611715565b73ffffffffffffffffffffffffffffffffffffffff161461232e576040517f08c379a000000000000000000000000000000000000000000000000000000000815260040161232590613711565b60405180910390fd5b600073ffffffffffffffffffffffffffffffffffffffff168173ffffffffffffffffffffffffffffffffffffffff16141561239e576040517f08c379a000000000000000000000000000000000000000000000000000000000815260040161239590613631565b60405180910390fd5b6123a781612ca6565b50565b600081836123b891906139f2565b905092915050565b600033905090565b600073ffffffffffffffffffffffffffffffffffffffff168373ffffffffffffffffffffffffffffffffffffffff161415612438576040517f08c379a000000000000000000000000000000000000000000000000000000000815260040161242f90613791565b60405180910390fd5b600073ffffffffffffffffffffffffffffffffffffffff168273ffffffffffffffffffffffffffffffffffffffff1614156124a8576040517f08c379a000000000000000000000000000000000000000000000000000000000815260040161249f90613651565b60405180910390fd5b80600160008573ffffffffffffffffffffffffffffffffffffffff1673ffffffffffffffffffffffffffffffffffffffff16815260200190815260200160002060008473ffffffffffffffffffffffffffffffffffffffff1673ffffffffffffffffffffffffffffffffffffffff168152602001908152602001600020819055508173ffffffffffffffffffffffffffffffffffffffff168373ffffffffffffffffffffffffffffffffffffffff167f8c5be1e5ebec7d5bd14f71427d1e84f3dd0314c0f7b2291e5b200ac8c7c3b9258360405161258691906137f1565b60405180910390a3505050565b600073ffffffffffffffffffffffffffffffffffffffff168373ffffffffffffffffffffffffffffffffffffffff161415612603576040517f08c379a00000000000000000000000000000000000000000000000000000000081526004016125fa90613771565b60405180910390fd5b600073ffffffffffffffffffffffffffffffffffffffff168273ffffffffffffffffffffffffffffffffffffffff161415612673576040517f08c379a000000000000000000000000000000000000000000000000000000000815260040161266a906135f1565b60405180910390fd5b61267e838383612d98565b60008060008573ffffffffffffffffffffffffffffffffffffffff1673ffffffffffffffffffffffffffffffffffffffff16815260200190815260200160002054905081811015612704576040517f08c379a00000000000000000000000000000000000000000000000000000000081526004016126fb90613671565b60405180910390fd5b8181036000808673ffffffffffffffffffffffffffffffffffffffff1673ffffffffffffffffffffffffffffffffffffffff16815260200190815260200160002081905550816000808573ffffffffffffffffffffffffffffffffffffffff1673ffffffffffffffffffffffffffffffffffffffff16815260200190815260200160002060008282546127979190613911565b925050819055508273ffffffffffffffffffffffffffffffffffffffff168473ffffffffffffffffffffffffffffffffffffffff167fddf252ad1be2c89b69c2b068fc378daa952ba7f163c4a11628f55a4df523b3ef846040516127fb91906137f1565b60405180910390a361280e848484612d9d565b50505050565b600061281f82612122565b90506128a681600d6000600b600087815260200190815260200160002060009054906101000a900473ffffffffffffffffffffffffffffffffffffffff1673ffffffffffffffffffffffffffffffffffffffff1673ffffffffffffffffffffffffffffffffffffffff1681526020019081526020016000205461299890919063ffffffff16565b600d6000600b600086815260200190815260200160002060009054906101000a900473ffffffffffffffffffffffffffffffffffffffff1673ffffffffffffffffffffffffffffffffffffffff1673ffffffffffffffffffffffffffffffffffffffff168152602001908152602001600020819055507f639ead9260a4cdba1143eefc293eb3a047b53eb10f5c3d0ff98fea4f4e39e53b82600b600085815260200190815260200160002060009054906101000a900473ffffffffffffffffffffffffffffffffffffffff1661297b8561173f565b8460405161298c949392919061386c565b60405180910390a15050565b600081836129a69190613911565b905092915050565b600073ffffffffffffffffffffffffffffffffffffffff168273ffffffffffffffffffffffffffffffffffffffff161415612a1e576040517f08c379a0000000000000000000000000000000000000000000000000000000008152600401612a15906137d1565b60405180910390fd5b612a2a60008383612d98565b8060026000828254612a3c9190613911565b92505081905550806000808473ffffffffffffffffffffffffffffffffffffffff1673ffffffffffffffffffffffffffffffffffffffff1681526020019081526020016000206000828254612a919190613911565b925050819055508173ffffffffffffffffffffffffffffffffffffffff16600073ffffffffffffffffffffffffffffffffffffffff167fddf252ad1be2c89b69c2b068fc378daa952ba7f163c4a11628f55a4df523b3ef83604051612af691906137f1565b60405180910390a3612b0a60008383612d9d565b5050565b600a5460065410612ca4576000612b23612da2565b90506000600190505b6009548111612c5257600b600082815260200190815260200160002060009054906101000a900473ffffffffffffffffffffffffffffffffffffffff1673ffffffffffffffffffffffffffffffffffffffff166108fc839081150290604051600060405180830381858888f19350505050158015612bae573d6000803e3d6000fd5b50612bcb612bba612da2565b6006546123aa90919063ffffffff16565b6006819055507f59c833799ec3da363124f92859095efc15336707f5a050bf54884a0013aa2d7d81600b600084815260200190815260200160002060009054906101000a900473ffffffffffffffffffffffffffffffffffffffff1684604051612c3793929190613835565b60405180910390a18080612c4a90613ae0565b915050612b2c565b507fd2f4e97410796ed7a8c179e2bcedaa646a77cc703849019db2e4a1d368473cff600954612c8c60095484612d8290919063ffffffff16565b604051612c9a9291906138b1565b60405180910390a1505b565b6000600560009054906101000a900473ffffffffffffffffffffffffffffffffffffffff16905081600560006101000a81548173ffffffffffffffffffffffffffffffffffffffff021916908373ffffffffffffffffffffffffffffffffffffffff1602179055508173ffffffffffffffffffffffffffffffffffffffff168173ffffffffffffffffffffffffffffffffffffffff167f8be0079c531659141344cd1fd0a4f28419497f9722a3daafe3b4186f6b6457e060405160405180910390a35050565b60008183612d7a9190613967565b905092915050565b60008183612d909190613998565b905092915050565b505050565b505050565b60008060065490506000604390506000606490506000612ddd82612dcf8587612d8290919063ffffffff16565b612d6c90919063ffffffff16565b90506000612df660095483612d6c90919063ffffffff16565b9050809550505050505090565b600081359050612e1281613bc7565b92915050565b600081359050612e2781613bde565b92915050565b600060208284031215612e3f57600080fd5b6000612e4d84828501612e03565b91505092915050565b60008060408385031215612e6957600080fd5b6000612e7785828601612e03565b9250506020612e8885828601612e03565b9150509250929050565b600080600060608486031215612ea757600080fd5b6000612eb586828701612e03565b9350506020612ec686828701612e03565b9250506040612ed786828701612e18565b9150509250925092565b60008060408385031215612ef457600080fd5b6000612f0285828601612e03565b9250506020612f1385828601612e18565b9150509250929050565b600060208284031215612f2f57600080fd5b6000612f3d84828501612e18565b91505092915050565b60008060408385031215612f5957600080fd5b6000612f6785828601612e18565b9250506020612f7885828601612e18565b9150509250929050565b612f8b81613a26565b82525050565b612f9a81613a38565b82525050565b6000612fab826138f5565b612fb58185613900565b9350612fc5818560208601613a7b565b612fce81613bb6565b840191505092915050565b6000612fe6602383613900565b91507f45524332303a207472616e7366657220746f20746865207a65726f206164647260008301527f65737300000000000000000000000000000000000000000000000000000000006020830152604082019050919050565b600061304c602483613900565b91507f4572726f722c207468697320696420697320616c72656164792072656769737460008301527f65726572000000000000000000000000000000000000000000000000000000006020830152604082019050919050565b60006130b2602683613900565b91507f4f776e61626c653a206e6577206f776e657220697320746865207a65726f206160008301527f64647265737300000000000000000000000000000000000000000000000000006020830152604082019050919050565b6000613118602283613900565b91507f45524332303a20617070726f766520746f20746865207a65726f20616464726560008301527f73730000000000000000000000000000000000000000000000000000000000006020830152604082019050919050565b600061317e602683613900565b91507f45524332303a207472616e7366657220616d6f756e742065786365656473206260008301527f616c616e636500000000000000000000000000000000000000000000000000006020830152604082019050919050565b60006131e4601983613900565b91507f4572726f722c20495453204e4f54204556454e204120444159000000000000006000830152602082019050919050565b6000613224601483613900565b91507f4572726f722c20594f5520415245204f574e45520000000000000000000000006000830152602082019050919050565b6000613264603083613900565b91507f4572726f722c20726567697374726174696f6e2066656520697320313639303060008301527f30303030303030303030303020574549000000000000000000000000000000006020830152604082019050919050565b60006132ca602883613900565b91507f45524332303a207472616e7366657220616d6f756e742065786365656473206160008301527f6c6c6f77616e63650000000000000000000000000000000000000000000000006020830152604082019050919050565b6000613330602083613900565b91507f4f776e61626c653a2063616c6c6572206973206e6f7420746865206f776e65726000830152602082019050919050565b6000613370602983613900565b91507f4572726f722c2074686973206164647265737320697320616c7265616479207260008301527f65676973746572657200000000000000000000000000000000000000000000006020830152604082019050919050565b60006133d6601d83613900565b91507f4572726f722c20596f7520617265204e4f5420726567697374657265720000006000830152602082019050919050565b6000613416602583613900565b91507f45524332303a207472616e736665722066726f6d20746865207a65726f20616460008301527f64726573730000000000000000000000000000000000000000000000000000006020830152604082019050919050565b600061347c602483613900565b91507f45524332303a20617070726f76652066726f6d20746865207a65726f2061646460008301527f72657373000000000000000000000000000000000000000000000000000000006020830152604082019050919050565b60006134e2602583613900565b91507f45524332303a2064656372656173656420616c6c6f77616e63652062656c6f7760008301527f207a65726f0000000000000000000000000000000000000000000000000000006020830152604082019050919050565b6000613548601f83613900565b91507f45524332303a206d696e7420746f20746865207a65726f2061646472657373006000830152602082019050919050565b61358481613a64565b82525050565b61359381613a6e565b82525050565b60006020820190506135ae6000830184612f82565b92915050565b60006020820190506135c96000830184612f91565b92915050565b600060208201905081810360008301526135e98184612fa0565b905092915050565b6000602082019050818103600083015261360a81612fd9565b9050919050565b6000602082019050818103600083015261362a8161303f565b9050919050565b6000602082019050818103600083015261364a816130a5565b9050919050565b6000602082019050818103600083015261366a8161310b565b9050919050565b6000602082019050818103600083015261368a81613171565b9050919050565b600060208201905081810360008301526136aa816131d7565b9050919050565b600060208201905081810360008301526136ca81613217565b9050919050565b600060208201905081810360008301526136ea81613257565b9050919050565b6000602082019050818103600083015261370a816132bd565b9050919050565b6000602082019050818103600083015261372a81613323565b9050919050565b6000602082019050818103600083015261374a81613363565b9050919050565b6000602082019050818103600083015261376a816133c9565b9050919050565b6000602082019050818103600083015261378a81613409565b9050919050565b600060208201905081810360008301526137aa8161346f565b9050919050565b600060208201905081810360008301526137ca816134d5565b9050919050565b600060208201905081810360008301526137ea8161353b565b9050919050565b6000602082019050613806600083018461357b565b92915050565b6000604082019050613821600083018561357b565b61382e6020830184612f82565b9392505050565b600060608201905061384a600083018661357b565b6138576020830185612f82565b613864604083018461357b565b949350505050565b6000608082019050613881600083018761357b565b61388e6020830186612f82565b61389b604083018561357b565b6138a8606083018461357b565b95945050505050565b60006040820190506138c6600083018561357b565b6138d3602083018461357b565b9392505050565b60006020820190506138ef600083018461358a565b92915050565b600081519050919050565b600082825260208201905092915050565b600061391c82613a64565b915061392783613a64565b9250827fffffffffffffffffffffffffffffffffffffffffffffffffffffffffffffffff0382111561395c5761395b613b29565b5b828201905092915050565b600061397282613a64565b915061397d83613a64565b92508261398d5761398c613b58565b5b828204905092915050565b60006139a382613a64565b91506139ae83613a64565b9250817fffffffffffffffffffffffffffffffffffffffffffffffffffffffffffffffff04831182151516156139e7576139e6613b29565b5b828202905092915050565b60006139fd82613a64565b9150613a0883613a64565b925082821015613a1b57613a1a613b29565b5b828203905092915050565b6000613a3182613a44565b9050919050565b60008115159050919050565b600073ffffffffffffffffffffffffffffffffffffffff82169050919050565b6000819050919050565b600060ff82169050919050565b60005b83811015613a99578082015181840152602081019050613a7e565b83811115613aa8576000848401525b50505050565b60006002820490506001821680613ac657607f821691505b60208210811415613ada57613ad9613b87565b5b50919050565b6000613aeb82613a64565b91507fffffffffffffffffffffffffffffffffffffffffffffffffffffffffffffffff821415613b1e57613b1d613b29565b5b600182019050919050565b7f4e487b7100000000000000000000000000000000000000000000000000000000600052601160045260246000fd5b7f4e487b7100000000000000000000000000000000000000000000000000000000600052601260045260246000fd5b7f4e487b7100000000000000000000000000000000000000000000000000000000600052602260045260246000fd5b6000601f19601f8301169050919050565b613bd081613a26565b8114613bdb57600080fd5b50565b613be781613a64565b8114613bf257600080fd5b5056fea2646970667358221220545d2a26561fa40176bd72744116c285bd20b39a81a25d8d1703c4c592a6989d64736f6c63430008000033",
  "immutableReferences": {},
  "source": "// SPDX-License-Identifier: MIT\r\n\r\npragma solidity ^0.8.0;\r\n\r\nimport \"openzeppelin-solidity/contracts/utils/math/SafeMath.sol\";\r\nimport \"openzeppelin-solidity/contracts/access/Ownable.sol\";\r\nimport \"openzeppelin-solidity/contracts/token/ERC20/ERC20.sol\";\r\n\r\ncontract Roi is ERC20, Ownable{\r\n    using SafeMath for uint256;\r\n    \r\n    address constant zero = address(0);\r\n    \r\n    uint256 fee;\r\n    uint256 id;\r\n    uint256 did;\r\n    uint256 userCount;\r\n    uint256 liquifyLimit = 1000000000000000000;\r\n\r\n    mapping(uint256 => address) public user;\r\n    mapping(address => uint256) internal depositAmount;\r\n\tmapping(address => uint256) public balance;\r\n    mapping(address => uint256) internal timeOfTransfer;\r\n    mapping(uint256 => uint256) internal didm;\r\n    \r\n    event Register(uint256 id, address addrss);\r\n    event Deregister(uint256 id, address addrss);    \r\n    event Deposit(uint256 id, address depositor, uint256 amount, uint256 balance);\r\n    event Withdraw(uint256 id, address withdrawer, uint256 amount, uint256 balance);\r\n    event Interest(uint256 id, address addrss, uint256 day, uint256 amount);\r\n    event Liquify(uint256 numberOfUsers, uint256 amount);\r\n    event LiquifyWithAddress(uint256 numberOfUsers, address usr, uint256 amount);\r\n\r\n    constructor () ERC20(\"Interest Reward Token\", \"IRT\") Ownable() {\r\n        id = 0;\r\n        did = 1;\r\n        userCount = 0;\r\n        user[id] = msg.sender;\r\n    }\r\n\r\n    function registration () payable public {\r\n        require(msg.sender != owner(), 'Error, YOU ARE OWNER');\r\n        uint256 li;\r\n        for (li = 0; li <= did; li++) {\r\n            if (didm[li] > 0) {\r\n                id = didm[li]; break;\r\n            } else {\r\n                id = userCount.add(1);\r\n            }\r\n        }\r\n\r\n        require(user[id] == zero, 'Error, this id is already registerer');\r\n\r\n        for (uint256 i = 1; i <= userCount; i++) {\r\n            require(msg.sender != user[i], 'Error, this address is already registerer');\r\n        }\r\n\r\n        require(msg.value == 16900000000000000 wei, 'Error, registration fee is 16900000000000000 WEI');\r\n        \r\n        uint256 _id = id;\r\n\r\n        fee = fee.add(msg.value);\r\n\r\n        user[id] = msg.sender;\r\n\r\n        userCount++;\r\n        \r\n        liquify();\r\n\r\n        didm[li] = 0;\r\n\r\n        emit Register(_id, user[_id]);\r\n\r\n    }\r\n\r\n    function deregistration (uint256 _id) payable public {\r\n        require(msg.sender == user[_id], 'Error, You are NOT registerer');\r\n        require(user[0] != user[_id]);\r\n\r\n        uint256 ldid;\r\n        address deUser = user[_id];\r\n\r\n        if (balance[user[_id]] > 0) {\r\n            withdraw(_id, balance[user[_id]]);\r\n        }\r\n\r\n        user[_id] = zero;\r\n\r\n        if (did > ldid) {\r\n            didm[did] = _id;\r\n        }\r\n\r\n        ldid = did;\r\n        \r\n        did++;\r\n\r\n        userCount = userCount.sub(1);\r\n\r\n        emit Deregister(_id, deUser);\r\n    }\r\n\r\n    function userCountShow () view public returns (uint256) {\r\n        return userCount;\r\n    }\r\n\r\n    function liquidityAmount () view internal returns (uint256) {\r\n        uint256 a = fee;\r\n        uint256 b = 67;\r\n        uint256 c = 100;\r\n        uint256 d = a.mul(b).div(c);\r\n        uint256 e = d.div(userCount);\r\n\r\n        return e;\r\n    }\r\n\r\n    function liquify () internal {\r\n        if (fee >= liquifyLimit) {\r\n            uint256 lAmount = liquidityAmount();\r\n            for (uint256 i = 1; i <= userCount; i++ ) {\r\n                payable(user[i]).transfer(lAmount);\r\n\r\n                fee = fee.sub(liquidityAmount());\r\n                emit LiquifyWithAddress(i, user[i], lAmount);\r\n            }\r\n            emit Liquify(userCount, lAmount.mul(userCount));\r\n        }\r\n    }\r\n\r\n    function deposit (uint256 _id) payable public {\r\n        require(msg.sender == user[_id], 'Error, You are NOT registerer');\r\n        require(msg.value > 0);\r\n        msg.value;\r\n        if(timeOfTransfer[user[_id]] > 0) {\r\n            _interest(_id);\r\n            balance[user[_id]] = balance[user[_id]].add(msg.value);\r\n            depositAmount[user[_id]] = depositAmount[user[_id]].add(msg.value);\r\n            timeOfTransfer[user[_id]] = block.timestamp;\r\n\r\n        } else {\r\n            balance[user[_id]] = balance[user[_id]].add(msg.value);\r\n            depositAmount[user[_id]] = depositAmount[user[_id]].add(msg.value);\r\n            timeOfTransfer[user[_id]] = block.timestamp;\r\n        }\r\n        emit Deposit(_id, user[_id], msg.value, balance[user[_id]]);\r\n\t}\r\n\r\n    function contBal () view public returns (uint256) {\r\n        return address(this).balance;\r\n    }\r\n\r\n    function day (uint256 _id) view public returns (uint256) {\r\n        uint256 currentTime = block.timestamp;\r\n        uint256 timeGap = currentTime.sub(timeOfTransfer[user[_id]]);\r\n        uint256 result = timeGap.div(10); // 86400 seconds in 1 day\r\n        return result;\r\n    }\r\n\r\n    function interest (uint256 _id) view public returns (uint256) {\r\n        uint256 amount;\r\n        uint256 _day = day(_id);\r\n        uint256 interestTestAmount = balance[user[_id]];\r\n\r\n        require(_day > 0, 'Error, ITS NOT EVEN A DAY' );\r\n\r\n        for(uint256 i = 1; i <= _day; i++){\r\n            uint256 ratePercent = 171;\r\n            \r\n            amount = interestTestAmount.mul(ratePercent).div(10000);\r\n            interestTestAmount = interestTestAmount.add(amount);\r\n        }\r\n        interestTestAmount = interestTestAmount.sub(depositAmount[msg.sender]);\r\n        return interestTestAmount;\r\n    }\r\n\r\n    function _interest (uint256 _id) internal {\r\n        uint256 amount = interest(_id);\r\n\r\n        balance[user[_id]] = balance[user[_id]].add(amount);\r\n\r\n        emit Interest(_id, user[_id], day(_id), amount);\r\n    }\r\n\r\n    function withdraw(uint256 _id, uint256 _amount) payable public {\r\n        require(_amount <= balance[user[_id]]);\r\n        require(msg.sender == user[_id], 'Error, You are NOT registerer');\r\n        if(day(_id) > 0){\r\n            _interest(_id);\r\n        }\r\n        uint256 mintable = balance[user[_id]].sub(depositAmount[user[_id]]);\r\n\r\n        timeOfTransfer[user[_id]] = block.timestamp;\r\n\r\n        balance[user[_id]] = balance[user[_id]].sub(_amount.add(mintable));\r\n\r\n        _mint(user[_id], mintable);\r\n        \r\n        depositAmount[user[_id]] = depositAmount[user[_id]].sub(_amount);\r\n\r\n        payable(user[_id]).transfer(_amount);\r\n\r\n        emit Withdraw(_id, user[_id], _amount, balance[user[_id]]);\r\n    }\r\n\r\n    function rewards (address usr) view public returns (uint256) {\r\n        uint256 r;\r\n        r = balanceOf(usr);\r\n        return r;\r\n    }\r\n\r\n}",
  "sourcePath": "C:\\Users\\abids\\Documents\\Projects\\roi\\src\\contracts\\Roi.sol",
  "compiler": {
    "name": "solc",
    "version": "0.8.0+commit.c7dfd78e.Emscripten.clang"
  },
  "schemaVersion": "3.4.3",
  "updatedAt": "2022-01-07T08:36:54.631Z",
  "devdoc": {
    "kind": "dev",
    "methods": {
      "allowance(address,address)": {
        "details": "See {IERC20-allowance}."
      },
      "approve(address,uint256)": {
        "details": "See {IERC20-approve}. Requirements: - `spender` cannot be the zero address."
      },
      "balanceOf(address)": {
        "details": "See {IERC20-balanceOf}."
      },
      "decimals()": {
        "details": "Returns the number of decimals used to get its user representation. For example, if `decimals` equals `2`, a balance of `505` tokens should be displayed to a user as `5.05` (`505 / 10 ** 2`). Tokens usually opt for a value of 18, imitating the relationship between Ether and Wei. This is the value {ERC20} uses, unless this function is overridden; NOTE: This information is only used for _display_ purposes: it in no way affects any of the arithmetic of the contract, including {IERC20-balanceOf} and {IERC20-transfer}."
      },
      "decreaseAllowance(address,uint256)": {
        "details": "Atomically decreases the allowance granted to `spender` by the caller. This is an alternative to {approve} that can be used as a mitigation for problems described in {IERC20-approve}. Emits an {Approval} event indicating the updated allowance. Requirements: - `spender` cannot be the zero address. - `spender` must have allowance for the caller of at least `subtractedValue`."
      },
      "increaseAllowance(address,uint256)": {
        "details": "Atomically increases the allowance granted to `spender` by the caller. This is an alternative to {approve} that can be used as a mitigation for problems described in {IERC20-approve}. Emits an {Approval} event indicating the updated allowance. Requirements: - `spender` cannot be the zero address."
      },
      "name()": {
        "details": "Returns the name of the token."
      },
      "owner()": {
        "details": "Returns the address of the current owner."
      },
      "renounceOwnership()": {
        "details": "Leaves the contract without owner. It will not be possible to call `onlyOwner` functions anymore. Can only be called by the current owner. NOTE: Renouncing ownership will leave the contract without an owner, thereby removing any functionality that is only available to the owner."
      },
      "symbol()": {
        "details": "Returns the symbol of the token, usually a shorter version of the name."
      },
      "totalSupply()": {
        "details": "See {IERC20-totalSupply}."
      },
      "transfer(address,uint256)": {
        "details": "See {IERC20-transfer}. Requirements: - `recipient` cannot be the zero address. - the caller must have a balance of at least `amount`."
      },
      "transferFrom(address,address,uint256)": {
        "details": "See {IERC20-transferFrom}. Emits an {Approval} event indicating the updated allowance. This is not required by the EIP. See the note at the beginning of {ERC20}. Requirements: - `sender` and `recipient` cannot be the zero address. - `sender` must have a balance of at least `amount`. - the caller must have allowance for ``sender``'s tokens of at least `amount`."
      },
      "transferOwnership(address)": {
        "details": "Transfers ownership of the contract to a new account (`newOwner`). Can only be called by the current owner."
      }
    },
    "version": 1
  },
  "userdoc": {
    "kind": "user",
    "methods": {},
    "version": 1
  }
}